{
  "contractName": "LemonNetworkVault",
  "abi": [
    {
      "inputs": [
        {
          "internalType": "address payable",
          "name": "_governance",
          "type": "address"
        },
        {
          "internalType": "contract ERC20",
          "name": "_token",
          "type": "address"
        }
      ],
      "stateMutability": "nonpayable",
      "type": "constructor"
    },
    {
      "anonymous": false,
      "inputs": [
        {
          "indexed": true,
          "internalType": "address",
          "name": "user",
          "type": "address"
        },
        {
          "indexed": false,
          "internalType": "uint256",
          "name": "amount",
          "type": "uint256"
        }
      ],
      "name": "Deposit",
      "type": "event"
    },
    {
      "anonymous": false,
      "inputs": [
        {
          "indexed": true,
          "internalType": "address",
          "name": "user",
          "type": "address"
        },
        {
          "indexed": false,
          "internalType": "uint256",
          "name": "amount",
          "type": "uint256"
        }
      ],
      "name": "Withdraw",
      "type": "event"
    },
    {
      "inputs": [],
      "name": "depositTimeLine",
      "outputs": [
        {
          "internalType": "uint256",
          "name": "",
          "type": "uint256"
        }
      ],
      "stateMutability": "view",
      "type": "function"
    },
    {
      "inputs": [],
      "name": "endTime",
      "outputs": [
        {
          "internalType": "uint256",
          "name": "",
          "type": "uint256"
        }
      ],
      "stateMutability": "view",
      "type": "function"
    },
    {
      "inputs": [],
      "name": "governance",
      "outputs": [
        {
          "internalType": "address payable",
          "name": "",
          "type": "address"
        }
      ],
      "stateMutability": "view",
      "type": "function"
    },
    {
      "inputs": [],
      "name": "lmnVault",
      "outputs": [
        {
          "internalType": "uint256",
          "name": "",
          "type": "uint256"
        }
      ],
      "stateMutability": "view",
      "type": "function"
    },
    {
      "inputs": [],
      "name": "maxLmnDeposit",
      "outputs": [
        {
          "internalType": "uint256",
          "name": "",
          "type": "uint256"
        }
      ],
      "stateMutability": "view",
      "type": "function"
    },
    {
      "inputs": [],
      "name": "token",
      "outputs": [
        {
          "internalType": "contract ERC20",
          "name": "",
          "type": "address"
        }
      ],
      "stateMutability": "view",
      "type": "function"
    },
    {
      "inputs": [],
      "name": "total_lmn",
      "outputs": [
        {
          "internalType": "uint256",
          "name": "",
          "type": "uint256"
        }
      ],
      "stateMutability": "view",
      "type": "function"
    },
    {
      "inputs": [
        {
          "internalType": "address",
          "name": "",
          "type": "address"
        }
      ],
      "name": "unlockList",
      "outputs": [
        {
          "internalType": "bool",
          "name": "unlocked",
          "type": "bool"
        }
      ],
      "stateMutability": "view",
      "type": "function"
    },
    {
      "inputs": [
        {
          "internalType": "address",
          "name": "",
          "type": "address"
        }
      ],
      "name": "userInfo",
      "outputs": [
        {
          "internalType": "uint256",
          "name": "amount",
          "type": "uint256"
        },
        {
          "internalType": "uint256",
          "name": "rewardDebt",
          "type": "uint256"
        },
        {
          "internalType": "uint256",
          "name": "depositTimestamp",
          "type": "uint256"
        }
      ],
      "stateMutability": "view",
      "type": "function"
    },
    {
      "stateMutability": "payable",
      "type": "receive"
    },
    {
      "inputs": [],
      "name": "unlock",
      "outputs": [
        {
          "internalType": "bool",
          "name": "",
          "type": "bool"
        }
      ],
      "stateMutability": "payable",
      "type": "function"
    },
    {
      "inputs": [
        {
          "internalType": "uint256",
          "name": "_amount",
          "type": "uint256"
        }
      ],
      "name": "depositVault",
      "outputs": [],
      "stateMutability": "nonpayable",
      "type": "function"
    },
    {
      "inputs": [],
      "name": "withdrawVault",
      "outputs": [],
      "stateMutability": "nonpayable",
      "type": "function"
    },
    {
      "inputs": [
        {
          "internalType": "uint256",
          "name": "_weiAmount",
          "type": "uint256"
        }
      ],
      "name": "withdrawEthers",
      "outputs": [
        {
          "internalType": "bool",
          "name": "success",
          "type": "bool"
        }
      ],
      "stateMutability": "nonpayable",
      "type": "function"
    },
    {
      "inputs": [
        {
          "internalType": "uint256",
          "name": "_tokens",
          "type": "uint256"
        }
      ],
      "name": "withdrawUnsoldTokens",
      "outputs": [
        {
          "internalType": "bool",
          "name": "success",
          "type": "bool"
        }
      ],
      "stateMutability": "nonpayable",
      "type": "function"
    }
  ],
  "bytecode": "0x608060405234801561001057600080fd5b506040516112653803806112658339818101604052604081101561003357600080fd5b81019080805190602001909291908051906020019092919050505081600860006101000a81548173ffffffffffffffffffffffffffffffffffffffff021916908373ffffffffffffffffffffffffffffffffffffffff160217905550806000806101000a81548173ffffffffffffffffffffffffffffffffffffffff021916908373ffffffffffffffffffffffffffffffffffffffff160217905550600060018190555060006002819055506a06342fd08f00f6378000006005819055506361f869ef6003819055506363d99d6f600481905550505061114d806101186000396000f3fe6080604052600436106100e15760003560e01c806398a5a0851161007f578063d0d0ed0511610059578063d0d0ed05146103c9578063e78c5cf4146103e0578063f42067061461040b578063fc0c546a1461045c57610151565b806398a5a08514610317578063a69df4b514610342578063cbbd5fd71461036257610151565b806345f085a6116100bb57806345f085a61461021f5780635a02ec19146102705780635aa6e675146102ab578063698e3ea5146102ec57610151565b80631959a0021461015657806330c2db04146101c95780633197cbb6146101f457610151565b3661015157600860009054906101000a900473ffffffffffffffffffffffffffffffffffffffff1673ffffffffffffffffffffffffffffffffffffffff166108fc349081150290604051600060405180830381858888f1935050505015801561014e573d6000803e3d6000fd5b50005b600080fd5b34801561016257600080fd5b506101a56004803603602081101561017957600080fd5b81019080803573ffffffffffffffffffffffffffffffffffffffff16906020019092919050505061049d565b60405180848152602001838152602001828152602001935050505060405180910390f35b3480156101d557600080fd5b506101de6104c7565b6040518082815260200191505060405180910390f35b34801561020057600080fd5b506102096104cd565b6040518082815260200191505060405180910390f35b34801561022b57600080fd5b506102586004803603602081101561024257600080fd5b81019080803590602001909291905050506104d3565b60405180821515815260200191505060405180910390f35b34801561027c57600080fd5b506102a96004803603602081101561029357600080fd5b8101908080359060200190929190505050610701565b005b3480156102b757600080fd5b506102c0610a85565b604051808273ffffffffffffffffffffffffffffffffffffffff16815260200191505060405180910390f35b3480156102f857600080fd5b50610301610aab565b6040518082815260200191505060405180910390f35b34801561032357600080fd5b5061032c610ab1565b6040518082815260200191505060405180910390f35b61034a610ab7565b60405180821515815260200191505060405180910390f35b34801561036e57600080fd5b506103b16004803603602081101561038557600080fd5b81019080803573ffffffffffffffffffffffffffffffffffffffff169060200190929190505050610c55565b60405180821515815260200191505060405180910390f35b3480156103d557600080fd5b506103de610c80565b005b3480156103ec57600080fd5b506103f5610fb6565b6040518082815260200191505060405180910390f35b34801561041757600080fd5b506104446004803603602081101561042e57600080fd5b8101908080359060200190929190505050610fbc565b60405180821515815260200191505060405180910390f35b34801561046857600080fd5b506104716110f3565b604051808273ffffffffffffffffffffffffffffffffffffffff16815260200191505060405180910390f35b60066020528060005260406000206000915090508060000154908060010154908060020154905083565b60035481565b60045481565b6000600860009054906101000a900473ffffffffffffffffffffffffffffffffffffffff1673ffffffffffffffffffffffffffffffffffffffff163373ffffffffffffffffffffffffffffffffffffffff1614610598576040517f08c379a000000000000000000000000000000000000000000000000000000000815260040180806020018281038252600b8152602001807f21676f7665726e616e636500000000000000000000000000000000000000000081525060200191505060405180910390fd5b60008054906101000a900473ffffffffffffffffffffffffffffffffffffffff1673ffffffffffffffffffffffffffffffffffffffff1663a9059cbb600860009054906101000a900473ffffffffffffffffffffffffffffffffffffffff16846040518363ffffffff1660e01b8152600401808373ffffffffffffffffffffffffffffffffffffffff16815260200182815260200192505050602060405180830381600087803b15801561064b57600080fd5b505af115801561065f573d6000803e3d6000fd5b505050506040513d602081101561067557600080fd5b81019080805190602001909291905050506106f8576040517f08c379a00000000000000000000000000000000000000000000000000000000081526004018080602001828103825260178152602001807f5472616e73666572206e6f74207375636365737366756c00000000000000000081525060200191505060405180910390fd5b60019050919050565b60011515600760003373ffffffffffffffffffffffffffffffffffffffff1673ffffffffffffffffffffffffffffffffffffffff16815260200190815260200160002060000160009054906101000a900460ff161515146107ca576040517f08c379a000000000000000000000000000000000000000000000000000000000815260040180806020018281038252600f8152602001807f436f6e7472616374204c6f636b6564000000000000000000000000000000000081525060200191505060405180910390fd5b6003544211156107d957600080fd5b60055481600254011115610855576040517f08c379a00000000000000000000000000000000000000000000000000000000081526004018080602001828103825260168152602001807f4d6178696d756d20416d6f756e7420526561636865640000000000000000000081525060200191505060405180910390fd5b60008054906101000a900473ffffffffffffffffffffffffffffffffffffffff1673ffffffffffffffffffffffffffffffffffffffff166323b872dd3330846040518463ffffffff1660e01b8152600401808473ffffffffffffffffffffffffffffffffffffffff1681526020018373ffffffffffffffffffffffffffffffffffffffff1681526020018281526020019350505050602060405180830381600087803b15801561090457600080fd5b505af1158015610918573d6000803e3d6000fd5b505050506040513d602081101561092e57600080fd5b81019080805190602001909291905050506109b1576040517f08c379a00000000000000000000000000000000000000000000000000000000081526004018080602001828103825260158152602001807f4552433230205472616e73666572204661696c6564000000000000000000000081525060200191505060405180910390fd5b6000600660003373ffffffffffffffffffffffffffffffffffffffff1673ffffffffffffffffffffffffffffffffffffffff16815260200190815260200160002090504281600201819055508181600001540181600001819055506103e861036d82600001540281610a1f57fe5b04816001018190555081600254016002819055503373ffffffffffffffffffffffffffffffffffffffff167fe1fffcc4923d04b559f4d29a8bfc6cda04eb5b0d3c460751c2402c5c5cc9109c836040518082815260200191505060405180910390a25050565b600860009054906101000a900473ffffffffffffffffffffffffffffffffffffffff1681565b60015481565b60055481565b600060011515600760003373ffffffffffffffffffffffffffffffffffffffff1673ffffffffffffffffffffffffffffffffffffffff16815260200190815260200160002060000160009054906101000a900460ff1615151415610b83576040517f08c379a000000000000000000000000000000000000000000000000000000000815260040180806020018281038252600d8152602001807f416c72656164792070616965640000000000000000000000000000000000000081525060200191505060405180910390fd5b600860009054906101000a900473ffffffffffffffffffffffffffffffffffffffff1673ffffffffffffffffffffffffffffffffffffffff166108fc66b1a2bc2ec500009081150290604051600060405180830381858888f19350505050158015610bf2573d6000803e3d6000fd5b506001600760003373ffffffffffffffffffffffffffffffffffffffff1673ffffffffffffffffffffffffffffffffffffffff16815260200190815260200160002060000160006101000a81548160ff0219169083151502179055506001905090565b60076020528060005260406000206000915090508060000160009054906101000a900460ff16905081565b6004544211610cf7576040517f08c379a00000000000000000000000000000000000000000000000000000000081526004018080602001828103825260208152602001807f5472696564207769746864726177616c206265666f726520656e642074696d6581525060200191505060405180910390fd5b60011515600760003373ffffffffffffffffffffffffffffffffffffffff1673ffffffffffffffffffffffffffffffffffffffff16815260200190815260200160002060000160009054906101000a900460ff16151514610dc0576040517f08c379a000000000000000000000000000000000000000000000000000000000815260040180806020018281038252600f8152602001807f436f6e7472616374204c6f636b6564000000000000000000000000000000000081525060200191505060405180910390fd5b6000600660003373ffffffffffffffffffffffffffffffffffffffff1673ffffffffffffffffffffffffffffffffffffffff168152602001908152602001600020905060008160010154826000015401905060008054906101000a900473ffffffffffffffffffffffffffffffffffffffff1673ffffffffffffffffffffffffffffffffffffffff1663a9059cbb33836040518363ffffffff1660e01b8152600401808373ffffffffffffffffffffffffffffffffffffffff16815260200182815260200192505050602060405180830381600087803b158015610ea357600080fd5b505af1158015610eb7573d6000803e3d6000fd5b505050506040513d6020811015610ecd57600080fd5b8101908080519060200190929190505050610f50576040517f08c379a00000000000000000000000000000000000000000000000000000000081526004018080602001828103825260168152602001807f436f756c64206e6f74205769746864726177204c4d4e0000000000000000000081525060200191505060405180910390fd5b60008260000181905550600082600101819055503373ffffffffffffffffffffffffffffffffffffffff167f884edad9ce6fa2440d8a54cc123490eb96d2768479d49ff9c7366125a9424364826040518082815260200191505060405180910390a25050565b60025481565b6000600860009054906101000a900473ffffffffffffffffffffffffffffffffffffffff1673ffffffffffffffffffffffffffffffffffffffff163373ffffffffffffffffffffffffffffffffffffffff1614611081576040517f08c379a00000000000000000000000000000000000000000000000000000000081526004018080602001828103825260188152602001807f4f6e6c7920617574686f72697a6564206d6574686f642021000000000000000081525060200191505060405180910390fd5b600860009054906101000a900473ffffffffffffffffffffffffffffffffffffffff1673ffffffffffffffffffffffffffffffffffffffff166108fc839081150290604051600060405180830381858888f193505050501580156110e9573d6000803e3d6000fd5b5060019050919050565b60008054906101000a900473ffffffffffffffffffffffffffffffffffffffff168156fea2646970667358221220eee83cd975222bd1dd12befd84778bdb499d5121954dc7981680e3fcfcace7cd64736f6c634300060c0033",
  "immutableReferences": {},
  "source": "pragma solidity 0.6.12;\n\ninterface ERC20 {\n    function totalSupply() external view returns (uint256);\n\n    function balanceOf(address account) external view returns (uint256);\n\n    function transfer(address recipient, uint256 amount)\n        external\n        returns (bool);\n\n    function allowance(address owner, address spender)\n        external\n        view\n        returns (uint256);\n\n    function approve(address spender, uint256 amount) external returns (bool);\n\n    function transferFrom(\n        address sender,\n        address recipient,\n        uint256 amount\n    ) external returns (bool);\n\n    event Transfer(address indexed from, address indexed to, uint256 value);\n    event Approval(\n        address indexed owner,\n        address indexed spender,\n        uint256 value\n    );\n}\n\ncontract LemonNetworkVault {\n    ERC20 public token;\n    uint256 public lmnVault;\n\n    uint256 public total_lmn;\n\n    uint256 public depositTimeLine;\n    uint256 public endTime;\n\n    uint256 public maxLmnDeposit;\n\n    struct UserInfo {\n        uint256 amount;\n        uint256 rewardDebt;\n        uint256 depositTimestamp;\n    }\n\n    mapping(address => UserInfo) public userInfo;\n\n    struct UserUnlock {\n        bool unlocked;\n    }\n\n    mapping(address => UserUnlock) public unlockList;\n\n    address payable public governance;\n\n    event Deposit(address indexed user, uint256 amount);\n    event Withdraw(address indexed user, uint256 amount);\n\n    constructor(address payable _governance, ERC20 _token) public {\n        governance = _governance;\n        token = _token;\n        lmnVault = 0;\n        total_lmn = 0;\n        maxLmnDeposit = 7500000000000000000000000;\n        depositTimeLine = 1643669999; // Mon Jan 31 2022 23:59:59 GMT+0100 (hora estándar de Europa central)\n        endTime = 1675205999; // Tue Jan 31 2023 23:59:59 GMT+0100 (hora estándar de Europa central)\n    }\n\n    receive() external payable {\n        governance.transfer(msg.value);\n    }\n\n    function unlock() public payable returns (bool) {\n        require(unlockList[msg.sender].unlocked != true, \"Already paied\");\n        governance.transfer(50000000000000000);\n        unlockList[msg.sender].unlocked = true;\n        return true;\n    }\n\n    function depositVault(uint256 _amount) public {\n        require(unlockList[msg.sender].unlocked == true, \"Contract Locked\");\n        require(now <= depositTimeLine);\n        require(total_lmn + _amount <= maxLmnDeposit, \"Maximum Amount Reached\"); //5,500,000 LMN\n\n        require(\n            token.transferFrom(msg.sender, address(this), _amount),\n            \"ERC20 Transfer Failed\"\n        );\n\n        UserInfo storage user = userInfo[msg.sender];\n        user.depositTimestamp = now;\n        user.amount = user.amount + _amount;\n        user.rewardDebt = (user.amount * 877) / 1000;\n        total_lmn = total_lmn + _amount;\n\n        emit Deposit(msg.sender, _amount);\n    }\n\n    function withdrawVault() public {\n        require(now > endTime, \"Tried withdrawal before end time\");\n        require(unlockList[msg.sender].unlocked == true, \"Contract Locked\");\n\n        UserInfo storage user = userInfo[msg.sender];\n\n        uint256 withAmount = user.amount + user.rewardDebt;\n        require(\n            token.transfer(msg.sender, withAmount),\n            \"Could not Withdraw LMN\"\n        );\n        user.amount = 0;\n        user.rewardDebt = 0;\n        emit Withdraw(msg.sender, withAmount);\n    }\n\n    function withdrawEthers(uint256 _weiAmount) public returns (bool success) {\n        require(msg.sender == governance, \"Only authorized method !\");\n\n        governance.transfer(_weiAmount);\n\n        return true;\n    }\n\n    function withdrawUnsoldTokens(uint256 _tokens)\n        public\n        returns (bool success)\n    {\n        require(msg.sender == governance, \"!governance\");\n\n        require(token.transfer(governance, _tokens), \"Transfer not successful\");\n\n        return true;\n    }\n}\n",
  "sourcePath": "/Users/developer/Desktop/HOME/Lemonade/FrontEnds/Landing/Def/landing-page-draft/src/contracts/LemonNetworkVault.sol",
  "compiler": {
    "name": "solc",
    "version": "0.6.12+commit.27d51765.Emscripten.clang"
  },
  "schemaVersion": "3.4.4",
  "updatedAt": "2022-03-30T21:06:34.745Z",
  "devdoc": {
    "kind": "dev",
    "methods": {},
    "version": 1
  },
  "userdoc": {
    "kind": "user",
    "methods": {},
    "version": 1
  }
}