{
  "contractName": "Vault",
  "abi": [
    {
      "inputs": [
        {
          "internalType": "address payable",
          "name": "_governance",
          "type": "address"
        },
        {
          "internalType": "contract ERC20",
          "name": "_token",
          "type": "address"
        }
      ],
      "stateMutability": "nonpayable",
      "type": "constructor"
    },
    {
      "anonymous": false,
      "inputs": [
        {
          "indexed": true,
          "internalType": "address",
          "name": "user",
          "type": "address"
        },
        {
          "indexed": false,
          "internalType": "uint256",
          "name": "amount",
          "type": "uint256"
        }
      ],
      "name": "Deposit",
      "type": "event"
    },
    {
      "anonymous": false,
      "inputs": [
        {
          "indexed": true,
          "internalType": "address",
          "name": "user",
          "type": "address"
        },
        {
          "indexed": false,
          "internalType": "uint256",
          "name": "amount",
          "type": "uint256"
        }
      ],
      "name": "Withdraw",
      "type": "event"
    },
    {
      "inputs": [],
      "name": "depositTimeLine",
      "outputs": [
        {
          "internalType": "uint256",
          "name": "",
          "type": "uint256"
        }
      ],
      "stateMutability": "view",
      "type": "function"
    },
    {
      "inputs": [],
      "name": "endTime",
      "outputs": [
        {
          "internalType": "uint256",
          "name": "",
          "type": "uint256"
        }
      ],
      "stateMutability": "view",
      "type": "function"
    },
    {
      "inputs": [],
      "name": "governance",
      "outputs": [
        {
          "internalType": "address payable",
          "name": "",
          "type": "address"
        }
      ],
      "stateMutability": "view",
      "type": "function"
    },
    {
      "inputs": [],
      "name": "lmn2Share",
      "outputs": [
        {
          "internalType": "uint256",
          "name": "",
          "type": "uint256"
        }
      ],
      "stateMutability": "view",
      "type": "function"
    },
    {
      "inputs": [],
      "name": "lmnVault",
      "outputs": [
        {
          "internalType": "uint256",
          "name": "",
          "type": "uint256"
        }
      ],
      "stateMutability": "view",
      "type": "function"
    },
    {
      "inputs": [],
      "name": "maxLmnDeposit",
      "outputs": [
        {
          "internalType": "uint256",
          "name": "",
          "type": "uint256"
        }
      ],
      "stateMutability": "view",
      "type": "function"
    },
    {
      "inputs": [],
      "name": "token",
      "outputs": [
        {
          "internalType": "contract ERC20",
          "name": "",
          "type": "address"
        }
      ],
      "stateMutability": "view",
      "type": "function"
    },
    {
      "inputs": [],
      "name": "total_lmn",
      "outputs": [
        {
          "internalType": "uint256",
          "name": "",
          "type": "uint256"
        }
      ],
      "stateMutability": "view",
      "type": "function"
    },
    {
      "inputs": [
        {
          "internalType": "address",
          "name": "",
          "type": "address"
        }
      ],
      "name": "unlockList",
      "outputs": [
        {
          "internalType": "bool",
          "name": "unlocked",
          "type": "bool"
        }
      ],
      "stateMutability": "view",
      "type": "function"
    },
    {
      "inputs": [
        {
          "internalType": "address",
          "name": "",
          "type": "address"
        }
      ],
      "name": "userInfo",
      "outputs": [
        {
          "internalType": "uint256",
          "name": "amount",
          "type": "uint256"
        },
        {
          "internalType": "uint256",
          "name": "depositTimestamp",
          "type": "uint256"
        },
        {
          "internalType": "uint256",
          "name": "rewardDebt",
          "type": "uint256"
        }
      ],
      "stateMutability": "view",
      "type": "function"
    },
    {
      "stateMutability": "payable",
      "type": "receive"
    },
    {
      "inputs": [],
      "name": "unlock",
      "outputs": [
        {
          "internalType": "bool",
          "name": "",
          "type": "bool"
        }
      ],
      "stateMutability": "payable",
      "type": "function"
    },
    {
      "inputs": [
        {
          "internalType": "uint256",
          "name": "_amount",
          "type": "uint256"
        }
      ],
      "name": "depositVault",
      "outputs": [],
      "stateMutability": "nonpayable",
      "type": "function"
    },
    {
      "inputs": [],
      "name": "withdrawVault",
      "outputs": [],
      "stateMutability": "nonpayable",
      "type": "function"
    },
    {
      "inputs": [
        {
          "internalType": "uint256",
          "name": "_weiAmount",
          "type": "uint256"
        }
      ],
      "name": "withdrawEthers",
      "outputs": [
        {
          "internalType": "bool",
          "name": "success",
          "type": "bool"
        }
      ],
      "stateMutability": "nonpayable",
      "type": "function"
    },
    {
      "inputs": [
        {
          "internalType": "uint256",
          "name": "_tokens",
          "type": "uint256"
        }
      ],
      "name": "withdrawUnsoldTokens",
      "outputs": [
        {
          "internalType": "bool",
          "name": "success",
          "type": "bool"
        }
      ],
      "stateMutability": "nonpayable",
      "type": "function"
    }
  ],
  "bytecode": "0x608060405234801561001057600080fd5b5060405161131c38038061131c8339818101604052604081101561003357600080fd5b81019080805190602001909291908051906020019092919050505081600960006101000a81548173ffffffffffffffffffffffffffffffffffffffff021916908373ffffffffffffffffffffffffffffffffffffffff160217905550806000806101000a81548173ffffffffffffffffffffffffffffffffffffffff021916908373ffffffffffffffffffffffffffffffffffffffff1602179055506a01f889e104bff1152a0000600281905550600060018190555060006003819055506a048cab98f1671af58000006006819055506361e351ef60048190555063626c5fdf60058190555050506111f28061012a6000396000f3fe6080604052600436106100ec5760003560e01c8063698e3ea51161008a578063d0d0ed0511610059578063d0d0ed05146103ff578063e78c5cf414610416578063f420670614610441578063fc0c546a146104925761015c565b8063698e3ea51461032257806398a5a0851461034d578063a69df4b514610378578063cbbd5fd7146103985761015c565b806345f085a6116100c657806345f085a61461022a57806359b66d2e1461027b5780635a02ec19146102a65780635aa6e675146102e15761015c565b80631959a0021461016157806330c2db04146101d45780633197cbb6146101ff5761015c565b3661015c57600960009054906101000a900473ffffffffffffffffffffffffffffffffffffffff1673ffffffffffffffffffffffffffffffffffffffff166108fc349081150290604051600060405180830381858888f19350505050158015610159573d6000803e3d6000fd5b50005b600080fd5b34801561016d57600080fd5b506101b06004803603602081101561018457600080fd5b81019080803573ffffffffffffffffffffffffffffffffffffffff1690602001909291905050506104d3565b60405180848152602001838152602001828152602001935050505060405180910390f35b3480156101e057600080fd5b506101e96104fd565b6040518082815260200191505060405180910390f35b34801561020b57600080fd5b50610214610503565b6040518082815260200191505060405180910390f35b34801561023657600080fd5b506102636004803603602081101561024d57600080fd5b8101908080359060200190929190505050610509565b60405180821515815260200191505060405180910390f35b34801561028757600080fd5b50610290610737565b6040518082815260200191505060405180910390f35b3480156102b257600080fd5b506102df600480360360208110156102c957600080fd5b810190808035906020019092919050505061073d565b005b3480156102ed57600080fd5b506102f6610b0e565b604051808273ffffffffffffffffffffffffffffffffffffffff16815260200191505060405180910390f35b34801561032e57600080fd5b50610337610b34565b6040518082815260200191505060405180910390f35b34801561035957600080fd5b50610362610b3a565b6040518082815260200191505060405180910390f35b610380610b40565b60405180821515815260200191505060405180910390f35b3480156103a457600080fd5b506103e7600480360360208110156103bb57600080fd5b81019080803573ffffffffffffffffffffffffffffffffffffffff169060200190929190505050610cde565b60405180821515815260200191505060405180910390f35b34801561040b57600080fd5b50610414610d09565b005b34801561042257600080fd5b5061042b61105b565b6040518082815260200191505060405180910390f35b34801561044d57600080fd5b5061047a6004803603602081101561046457600080fd5b8101908080359060200190929190505050611061565b60405180821515815260200191505060405180910390f35b34801561049e57600080fd5b506104a7611198565b604051808273ffffffffffffffffffffffffffffffffffffffff16815260200191505060405180910390f35b60076020528060005260406000206000915090508060000154908060010154908060020154905083565b60045481565b60055481565b6000600960009054906101000a900473ffffffffffffffffffffffffffffffffffffffff1673ffffffffffffffffffffffffffffffffffffffff163373ffffffffffffffffffffffffffffffffffffffff16146105ce576040517f08c379a000000000000000000000000000000000000000000000000000000000815260040180806020018281038252600b8152602001807f21676f7665726e616e636500000000000000000000000000000000000000000081525060200191505060405180910390fd5b60008054906101000a900473ffffffffffffffffffffffffffffffffffffffff1673ffffffffffffffffffffffffffffffffffffffff1663a9059cbb600960009054906101000a900473ffffffffffffffffffffffffffffffffffffffff16846040518363ffffffff1660e01b8152600401808373ffffffffffffffffffffffffffffffffffffffff16815260200182815260200192505050602060405180830381600087803b15801561068157600080fd5b505af1158015610695573d6000803e3d6000fd5b505050506040513d60208110156106ab57600080fd5b810190808051906020019092919050505061072e576040517f08c379a00000000000000000000000000000000000000000000000000000000081526004018080602001828103825260178152602001807f5472616e73666572206e6f74207375636365737366756c00000000000000000081525060200191505060405180910390fd5b60019050919050565b60025481565b60011515600860003373ffffffffffffffffffffffffffffffffffffffff1673ffffffffffffffffffffffffffffffffffffffff16815260200190815260200160002060000160009054906101000a900460ff16151514610806576040517f08c379a000000000000000000000000000000000000000000000000000000000815260040180806020018281038252600f8152602001807f436f6e7472616374204c6f636b6564000000000000000000000000000000000081525060200191505060405180910390fd5b60045442111561087e576040517f08c379a00000000000000000000000000000000000000000000000000000000081526004018080602001828103825260138152602001807f4465706f736974732061726520436c6f7365640000000000000000000000000081525060200191505060405180910390fd5b600654816003540111156108fa576040517f08c379a00000000000000000000000000000000000000000000000000000000081526004018080602001828103825260168152602001807f4d6178696d756d20416d6f756e7420526561636865640000000000000000000081525060200191505060405180910390fd5b60008054906101000a900473ffffffffffffffffffffffffffffffffffffffff1673ffffffffffffffffffffffffffffffffffffffff166323b872dd3330846040518463ffffffff1660e01b8152600401808473ffffffffffffffffffffffffffffffffffffffff1681526020018373ffffffffffffffffffffffffffffffffffffffff1681526020018281526020019350505050602060405180830381600087803b1580156109a957600080fd5b505af11580156109bd573d6000803e3d6000fd5b505050506040513d60208110156109d357600080fd5b8101908080519060200190929190505050610a56576040517f08c379a00000000000000000000000000000000000000000000000000000000081526004018080602001828103825260158152602001807f4552433230205472616e73666572204661696c6564000000000000000000000081525060200191505060405180910390fd5b6000600760003373ffffffffffffffffffffffffffffffffffffffff1673ffffffffffffffffffffffffffffffffffffffff168152602001908152602001600020905042816001018190555081816000015401816000018190555081600354016003819055503373ffffffffffffffffffffffffffffffffffffffff167fe1fffcc4923d04b559f4d29a8bfc6cda04eb5b0d3c460751c2402c5c5cc9109c836040518082815260200191505060405180910390a25050565b600960009054906101000a900473ffffffffffffffffffffffffffffffffffffffff1681565b60015481565b60065481565b600060011515600860003373ffffffffffffffffffffffffffffffffffffffff1673ffffffffffffffffffffffffffffffffffffffff16815260200190815260200160002060000160009054906101000a900460ff1615151415610c0c576040517f08c379a000000000000000000000000000000000000000000000000000000000815260040180806020018281038252600d8152602001807f416c72656164792070616965640000000000000000000000000000000000000081525060200191505060405180910390fd5b600960009054906101000a900473ffffffffffffffffffffffffffffffffffffffff1673ffffffffffffffffffffffffffffffffffffffff166108fc66b1a2bc2ec500009081150290604051600060405180830381858888f19350505050158015610c7b573d6000803e3d6000fd5b506001600860003373ffffffffffffffffffffffffffffffffffffffff1673ffffffffffffffffffffffffffffffffffffffff16815260200190815260200160002060000160006101000a81548160ff0219169083151502179055506001905090565b60086020528060005260406000206000915090508060000160009054906101000a900460ff16905081565b6005544211610d80576040517f08c379a00000000000000000000000000000000000000000000000000000000081526004018080602001828103825260208152602001807f5472696564207769746864726177616c206265666f726520656e642074696d6581525060200191505060405180910390fd5b60011515600860003373ffffffffffffffffffffffffffffffffffffffff1673ffffffffffffffffffffffffffffffffffffffff16815260200190815260200160002060000160009054906101000a900460ff16151514610e49576040517f08c379a000000000000000000000000000000000000000000000000000000000815260040180806020018281038252600f8152602001807f436f6e7472616374204c6f636b6564000000000000000000000000000000000081525060200191505060405180910390fd5b6000600760003373ffffffffffffffffffffffffffffffffffffffff1673ffffffffffffffffffffffffffffffffffffffff168152602001908152602001600020905060035460025482600001540281610e9f57fe5b04816002018190555060008160020154826000015401905060008054906101000a900473ffffffffffffffffffffffffffffffffffffffff1673ffffffffffffffffffffffffffffffffffffffff1663a9059cbb33836040518363ffffffff1660e01b8152600401808373ffffffffffffffffffffffffffffffffffffffff16815260200182815260200192505050602060405180830381600087803b158015610f4857600080fd5b505af1158015610f5c573d6000803e3d6000fd5b505050506040513d6020811015610f7257600080fd5b8101908080519060200190929190505050610ff5576040517f08c379a00000000000000000000000000000000000000000000000000000000081526004018080602001828103825260168152602001807f436f756c64206e6f74205769746864726177204c4d4e0000000000000000000081525060200191505060405180910390fd5b60008260000181905550600082600201819055503373ffffffffffffffffffffffffffffffffffffffff167f884edad9ce6fa2440d8a54cc123490eb96d2768479d49ff9c7366125a9424364826040518082815260200191505060405180910390a25050565b60035481565b6000600960009054906101000a900473ffffffffffffffffffffffffffffffffffffffff1673ffffffffffffffffffffffffffffffffffffffff163373ffffffffffffffffffffffffffffffffffffffff1614611126576040517f08c379a00000000000000000000000000000000000000000000000000000000081526004018080602001828103825260188152602001807f4f6e6c7920617574686f72697a6564206d6574686f642021000000000000000081525060200191505060405180910390fd5b600960009054906101000a900473ffffffffffffffffffffffffffffffffffffffff1673ffffffffffffffffffffffffffffffffffffffff166108fc839081150290604051600060405180830381858888f1935050505015801561118e573d6000803e3d6000fd5b5060019050919050565b60008054906101000a900473ffffffffffffffffffffffffffffffffffffffff168156fea264697066735822122051bd2fc52cd51451c4d4e077ec910000187d4fb451b053c45d54f9ab9da83c9564736f6c634300060c0033",
  "immutableReferences": {},
  "source": "pragma solidity 0.6.12;\n\ninterface ERC20 {\n    function totalSupply() external view returns (uint256);\n\n    function balanceOf(address account) external view returns (uint256);\n\n    function transfer(address recipient, uint256 amount)\n        external\n        returns (bool);\n\n    function allowance(address owner, address spender)\n        external\n        view\n        returns (uint256);\n\n    function approve(address spender, uint256 amount) external returns (bool);\n\n    function transferFrom(\n        address sender,\n        address recipient,\n        uint256 amount\n    ) external returns (bool);\n\n    event Transfer(address indexed from, address indexed to, uint256 value);\n    event Approval(\n        address indexed owner,\n        address indexed spender,\n        uint256 value\n    );\n}\n\ncontract Vault {\n    ERC20 public token;\n    uint256 public lmnVault;\n    uint256 public lmn2Share;\n\n    uint256 public total_lmn;\n\n    uint256 public depositTimeLine;\n    uint256 public endTime;\n\n    uint256 public maxLmnDeposit;\n\n    struct UserInfo {\n        uint256 amount; // How many LMN tokens the user has provided.\n        uint256 depositTimestamp;\n        uint256 rewardDebt; // Reward due to LMN in Vault\n    }\n\n    mapping(address => UserInfo) public userInfo;\n\n    struct UserUnlock {\n        bool unlocked;\n    }\n\n    mapping(address => UserUnlock) public unlockList;\n\n    address payable public governance;\n\n    event Deposit(address indexed user, uint256 amount);\n    event Withdraw(address indexed user, uint256 amount);\n\n    constructor(address payable _governance, ERC20 _token) public {\n        governance = _governance;\n        token = _token;\n        lmn2Share = 2382616125600000000000000;\n        lmnVault = 0;\n        total_lmn = 0;\n        maxLmnDeposit = 5500000000000000000000000;\n        depositTimeLine = 1642287599; // Sat Jan 15 2022 23:59:59 GMT+0100 (hora estándar de Europa central)\n        endTime = 1651269599; // Fri Apr 29 2022 23:59:59 GMT+0200 (hora de verano de Europa central)\n    }\n\n    receive() external payable {\n        governance.transfer(msg.value);\n    }\n\n    function unlock() public payable returns (bool) {\n        require(unlockList[msg.sender].unlocked != true, \"Already paied\");\n        governance.transfer(50000000000000000);\n        unlockList[msg.sender].unlocked = true;\n        return true;\n    }\n\n    function depositVault(uint256 _amount) public {\n        require(unlockList[msg.sender].unlocked == true, \"Contract Locked\");\n        require(now <= depositTimeLine, \"Deposits are Closed\");\n        require(total_lmn + _amount <= maxLmnDeposit, \"Maximum Amount Reached\"); //5,500,000 LMN\n        require(\n            token.transferFrom(msg.sender, address(this), _amount),\n            \"ERC20 Transfer Failed\"\n        );\n        UserInfo storage user = userInfo[msg.sender];\n        user.depositTimestamp = now;\n        user.amount = user.amount + _amount;\n        total_lmn = total_lmn + _amount;\n        emit Deposit(msg.sender, _amount);\n    }\n\n    function withdrawVault() public {\n        require(now > endTime, \"Tried withdrawal before end time\");\n        require(unlockList[msg.sender].unlocked == true, \"Contract Locked\");\n\n        UserInfo storage user = userInfo[msg.sender];\n\n        user.rewardDebt = (user.amount * lmn2Share) / total_lmn;\n        uint256 withAmount = user.amount + user.rewardDebt;\n        require(\n            token.transfer(msg.sender, withAmount),\n            \"Could not Withdraw LMN\"\n        );\n\n        user.amount = 0;\n        user.rewardDebt = 0;\n\n        emit Withdraw(msg.sender, withAmount);\n    }\n\n    function withdrawEthers(uint256 _weiAmount) public returns (bool success) {\n        require(msg.sender == governance, \"Only authorized method !\");\n\n        governance.transfer(_weiAmount);\n\n        return true;\n    }\n\n    function withdrawUnsoldTokens(uint256 _tokens)\n        public\n        returns (bool success)\n    {\n        require(msg.sender == governance, \"!governance\");\n\n        require(token.transfer(governance, _tokens), \"Transfer not successful\");\n\n        return true;\n    }\n}\n",
  "sourcePath": "/Users/developer/Desktop/HOME/Lemonade/FrontEnds/Landing/Def/landing-page-draft/src/contracts/Vault.sol",
  "compiler": {
    "name": "solc",
    "version": "0.6.12+commit.27d51765.Emscripten.clang"
  },
  "schemaVersion": "3.4.4",
  "updatedAt": "2022-03-30T21:06:34.757Z",
  "devdoc": {
    "kind": "dev",
    "methods": {},
    "version": 1
  },
  "userdoc": {
    "kind": "user",
    "methods": {},
    "version": 1
  }
}